{
  "_format": "hh-sol-artifact-1",
  "contractName": "Faucet",
  "sourceName": "contracts/Faucet.sol",
  "abi": [
    {
      "inputs": [],
      "stateMutability": "nonpayable",
      "type": "constructor"
    },
    {
      "anonymous": false,
      "inputs": [
        {
          "indexed": false,
          "internalType": "address",
          "name": "recipient",
          "type": "address"
        }
      ],
      "name": "Drip",
      "type": "event"
    },
    {
      "anonymous": false,
      "inputs": [
        {
          "indexed": false,
          "internalType": "uint256",
          "name": "nextTimestamp",
          "type": "uint256"
        }
      ],
      "name": "NextDrip",
      "type": "event"
    },
    {
      "anonymous": false,
      "inputs": [
        {
          "indexed": true,
          "internalType": "address",
          "name": "previousOwner",
          "type": "address"
        },
        {
          "indexed": true,
          "internalType": "address",
          "name": "newOwner",
          "type": "address"
        }
      ],
      "name": "OwnershipTransferred",
      "type": "event"
    },
    {
      "inputs": [],
      "name": "clear",
      "outputs": [],
      "stateMutability": "nonpayable",
      "type": "function"
    },
    {
      "inputs": [
        {
          "internalType": "uint256",
          "name": "_amount",
          "type": "uint256"
        }
      ],
      "name": "emptyFaucet",
      "outputs": [],
      "stateMutability": "nonpayable",
      "type": "function"
    },
    {
      "inputs": [
        {
          "internalType": "address payable",
          "name": "_to",
          "type": "address"
        }
      ],
      "name": "faucet",
      "outputs": [],
      "stateMutability": "nonpayable",
      "type": "function"
    },
    {
      "inputs": [
        {
          "internalType": "address",
          "name": "_to",
          "type": "address"
        }
      ],
      "name": "getLastClaim",
      "outputs": [
        {
          "internalType": "uint256",
          "name": "",
          "type": "uint256"
        }
      ],
      "stateMutability": "view",
      "type": "function"
    },
    {
      "inputs": [],
      "name": "owner",
      "outputs": [
        {
          "internalType": "address",
          "name": "",
          "type": "address"
        }
      ],
      "stateMutability": "view",
      "type": "function"
    },
    {
      "inputs": [],
      "name": "renounceOwnership",
      "outputs": [],
      "stateMutability": "nonpayable",
      "type": "function"
    },
    {
      "inputs": [
        {
          "internalType": "address",
          "name": "newOwner",
          "type": "address"
        }
      ],
      "name": "transferOwnership",
      "outputs": [],
      "stateMutability": "nonpayable",
      "type": "function"
    },
    {
      "stateMutability": "payable",
      "type": "receive"
    }
  ],
  "bytecode": "0x60806040523480156200001157600080fd5b506200003262000026620001a060201b60201c565b620001a860201b60201c565b60026201518042620000459190620003b9565b9080600181540180825580915050600190039060005260206000200160009091909190915055600262015180426200007e9190620003b9565b908060018154018082558091505060019003906000526020600020016000909190919091505560026201518042620000b79190620003b9565b908060018154018082558091505060019003906000526020600020016000909190919091505560026201518042620000f09190620003b9565b908060018154018082558091505060019003906000526020600020016000909190919091505560026201518042620001299190620003b9565b90806001815401808255809150506001900390600052602060002001600090919091909150556200019a6040518060400160405280601981526020017f57652068617665206265656e20636f6e737472756374656421000000000000008152506200026c60201b620008501760201c565b62000474565b600033905090565b60008060009054906101000a900473ffffffffffffffffffffffffffffffffffffffff169050816000806101000a81548173ffffffffffffffffffffffffffffffffffffffff021916908373ffffffffffffffffffffffffffffffffffffffff1602179055508173ffffffffffffffffffffffffffffffffffffffff168173ffffffffffffffffffffffffffffffffffffffff167f8be0079c531659141344cd1fd0a4f28419497f9722a3daafe3b4186f6b6457e060405160405180910390a35050565b6200030c8160405160240162000283919062000379565b6040516020818303038152906040527f41304fac000000000000000000000000000000000000000000000000000000007bffffffffffffffffffffffffffffffffffffffffffffffffffffffff19166020820180517bffffffffffffffffffffffffffffffffffffffffffffffffffffffff83818316178352505050506200030f60201b60201c565b50565b60008151905060006a636f6e736f6c652e6c6f679050602083016000808483855afa5050505050565b600062000345826200039d565b620003518185620003a8565b935062000363818560208601620003fe565b6200036e8162000463565b840191505092915050565b6000602082019050818103600083015262000395818462000338565b905092915050565b600081519050919050565b600082825260208201905092915050565b6000620003c682620003f4565b9150620003d383620003f4565b925082821015620003e957620003e862000434565b5b828203905092915050565b6000819050919050565b60005b838110156200041e57808201518184015260208101905062000401565b838111156200042e576000848401525b50505050565b7f4e487b7100000000000000000000000000000000000000000000000000000000600052601160045260246000fd5b6000601f19601f8301169050919050565b61116c80620004846000396000f3fe6080604052600436106100745760003560e01c80638da5cb5b1161004e5780638da5cb5b146100eb5780639aa81e9414610116578063b86d1d631461013f578063f2fde38b146101685761007b565b806352efea6e14610080578063715018a6146100975780638778f415146100ae5761007b565b3661007b57005b600080fd5b34801561008c57600080fd5b50610095610191565b005b3480156100a357600080fd5b506100ac610315565b005b3480156100ba57600080fd5b506100d560048036038101906100d09190610b72565b610329565b6040516100e29190610dfa565b60405180910390f35b3480156100f757600080fd5b50610100610372565b60405161010d9190610d02565b60405180910390f35b34801561012257600080fd5b5061013d60048036038101906101389190610bc4565b61039b565b005b34801561014b57600080fd5b5061016660048036038101906101619190610b9b565b610437565b005b34801561017457600080fd5b5061018f600480360381019061018a9190610b72565b6107cc565b005b6101996108e9565b60006001600073a528f58d716dc9a03487d7eea1dbbd4a52af4a2373ffffffffffffffffffffffffffffffffffffffff1673ffffffffffffffffffffffffffffffffffffffff16815260200190815260200160002081905550600260006102009190610af5565b600262015180426102119190610e87565b9080600181540180825580915050600190039060005260206000200160009091909190915055600262015180426102489190610e87565b90806001815401808255809150506001900390600052602060002001600090919091909150556002620151804261027f9190610e87565b9080600181540180825580915050600190039060005260206000200160009091909190915055600262015180426102b69190610e87565b9080600181540180825580915050600190039060005260206000200160009091909190915055600262015180426102ed9190610e87565b9080600181540180825580915050600190039060005260206000200160009091909190915055565b61031d6108e9565b6103276000610967565b565b6000600160008373ffffffffffffffffffffffffffffffffffffffff1673ffffffffffffffffffffffffffffffffffffffff168152602001908152602001600020549050919050565b60008060009054906101000a900473ffffffffffffffffffffffffffffffffffffffff16905090565b6103a36108e9565b804711156103e6576040517f08c379a00000000000000000000000000000000000000000000000000000000081526004016103dd90610d5a565b60405180910390fd5b6103ee610372565b73ffffffffffffffffffffffffffffffffffffffff166108fc829081150290604051600060405180830381858888f19350505050158015610433573d6000803e3d6000fd5b5050565b61043f6108e9565b61044847610a2b565b610458662386f26fc10000610a2b565b662386f26fc1000047116104a1576040517f08c379a000000000000000000000000000000000000000000000000000000000815260040161049890610d5a565b60405180910390fd5b6000600160008373ffffffffffffffffffffffffffffffffffffffff1673ffffffffffffffffffffffffffffffffffffffff16815260200190815260200160002054148061053c575062015180426104f99190610e87565b600160008373ffffffffffffffffffffffffffffffffffffffff1673ffffffffffffffffffffffffffffffffffffffff1681526020019081526020016000205411155b61057b576040517f08c379a000000000000000000000000000000000000000000000000000000000815260040161057290610d9a565b60405180910390fd5b6000600260056002805490506105919190610e87565b815481106105c8577f4e487b7100000000000000000000000000000000000000000000000000000000600052603260045260246000fd5b9060005260206000200154905062015180426105e49190610e87565b8111610685577f475ff42af78d680e4ebea1a6ee1b3b166e689bdb237c18a09c290950861bc59262015180600260046002805490506106239190610e87565b8154811061065a577f4e487b7100000000000000000000000000000000000000000000000000000000600052603260045260246000fd5b906000526020600020015461066f9190610e31565b60405161067c9190610dfa565b60405180910390a15b62015180426106949190610e87565b8111156106d6576040517f08c379a00000000000000000000000000000000000000000000000000000000081526004016106cd90610dda565b60405180910390fd5b42600160008473ffffffffffffffffffffffffffffffffffffffff1673ffffffffffffffffffffffffffffffffffffffff168152602001908152602001600020819055508173ffffffffffffffffffffffffffffffffffffffff166108fc662386f26fc100009081150290604051600060405180830381858888f19350505050158015610767573d6000803e3d6000fd5b5060024290806001815401808255809150506001900390600052602060002001600090919091909150557f9a6488909505f07c33edf1a9bfa9c43fc342a86748cabdccbfcec5a3e3ab8d9b826040516107c09190610d1d565b60405180910390a15050565b6107d46108e9565b600073ffffffffffffffffffffffffffffffffffffffff168173ffffffffffffffffffffffffffffffffffffffff161415610844576040517f08c379a000000000000000000000000000000000000000000000000000000000815260040161083b90610d7a565b60405180910390fd5b61084d81610967565b50565b6108e6816040516024016108649190610d38565b6040516020818303038152906040527f41304fac000000000000000000000000000000000000000000000000000000007bffffffffffffffffffffffffffffffffffffffffffffffffffffffff19166020820180517bffffffffffffffffffffffffffffffffffffffffffffffffffffffff8381831617835250505050610ac4565b50565b6108f1610aed565b73ffffffffffffffffffffffffffffffffffffffff1661090f610372565b73ffffffffffffffffffffffffffffffffffffffff1614610965576040517f08c379a000000000000000000000000000000000000000000000000000000000815260040161095c90610dba565b60405180910390fd5b565b60008060009054906101000a900473ffffffffffffffffffffffffffffffffffffffff169050816000806101000a81548173ffffffffffffffffffffffffffffffffffffffff021916908373ffffffffffffffffffffffffffffffffffffffff1602179055508173ffffffffffffffffffffffffffffffffffffffff168173ffffffffffffffffffffffffffffffffffffffff167f8be0079c531659141344cd1fd0a4f28419497f9722a3daafe3b4186f6b6457e060405160405180910390a35050565b610ac181604051602401610a3f9190610dfa565b6040516020818303038152906040527ff5b1bba9000000000000000000000000000000000000000000000000000000007bffffffffffffffffffffffffffffffffffffffffffffffffffffffff19166020820180517bffffffffffffffffffffffffffffffffffffffffffffffffffffffff8381831617835250505050610ac4565b50565b60008151905060006a636f6e736f6c652e6c6f679050602083016000808483855afa5050505050565b600033905090565b5080546000825590600052602060002090810190610b139190610b16565b50565b5b80821115610b2f576000816000905550600101610b17565b5090565b600081359050610b42816110f1565b92915050565b600081359050610b5781611108565b92915050565b600081359050610b6c8161111f565b92915050565b600060208284031215610b8457600080fd5b6000610b9284828501610b33565b91505092915050565b600060208284031215610bad57600080fd5b6000610bbb84828501610b48565b91505092915050565b600060208284031215610bd657600080fd5b6000610be484828501610b5d565b91505092915050565b610bf681610f09565b82525050565b610c0581610ebb565b82525050565b6000610c1682610e15565b610c208185610e20565b9350610c30818560208601610f3f565b610c3981610fa1565b840191505092915050565b6000610c51601e83610e20565b9150610c5c82610fb2565b602082019050919050565b6000610c74602683610e20565b9150610c7f82610fdb565b604082019050919050565b6000610c97602683610e20565b9150610ca28261102a565b604082019050919050565b6000610cba602083610e20565b9150610cc582611079565b602082019050919050565b6000610cdd603b83610e20565b9150610ce8826110a2565b604082019050919050565b610cfc81610eff565b82525050565b6000602082019050610d176000830184610bfc565b92915050565b6000602082019050610d326000830184610bed565b92915050565b60006020820190508181036000830152610d528184610c0b565b905092915050565b60006020820190508181036000830152610d7381610c44565b9050919050565b60006020820190508181036000830152610d9381610c67565b9050919050565b60006020820190508181036000830152610db381610c8a565b9050919050565b60006020820190508181036000830152610dd381610cad565b9050919050565b60006020820190508181036000830152610df381610cd0565b9050919050565b6000602082019050610e0f6000830184610cf3565b92915050565b600081519050919050565b600082825260208201905092915050565b6000610e3c82610eff565b9150610e4783610eff565b9250827fffffffffffffffffffffffffffffffffffffffffffffffffffffffffffffffff03821115610e7c57610e7b610f72565b5b828201905092915050565b6000610e9282610eff565b9150610e9d83610eff565b925082821015610eb057610eaf610f72565b5b828203905092915050565b6000610ec682610edf565b9050919050565b6000610ed882610edf565b9050919050565b600073ffffffffffffffffffffffffffffffffffffffff82169050919050565b6000819050919050565b6000610f1482610f1b565b9050919050565b6000610f2682610f2d565b9050919050565b6000610f3882610edf565b9050919050565b60005b83811015610f5d578082015181840152602081019050610f42565b83811115610f6c576000848401525b50505050565b7f4e487b7100000000000000000000000000000000000000000000000000000000600052601160045260246000fd5b6000601f19601f8301169050919050565b7f4e6f7420656e6f75676820657468657220696e20746865206661756365740000600082015250565b7f4f776e61626c653a206e6577206f776e657220697320746865207a65726f206160008201527f6464726573730000000000000000000000000000000000000000000000000000602082015250565b7f596f752063616e206f6e6c7920636c61696d206f6e636520657665727920323460008201527f20686f7572730000000000000000000000000000000000000000000000000000602082015250565b7f4f776e61626c653a2063616c6c6572206973206e6f7420746865206f776e6572600082015250565b7f5468652066617563657420686173206265656e20636c61696d656420746f6f2060008201527f6d616e792074696d657320696e20746865207061737420686f75720000000000602082015250565b6110fa81610ebb565b811461110557600080fd5b50565b61111181610ecd565b811461111c57600080fd5b50565b61112881610eff565b811461113357600080fd5b5056fea26469706673582212200f2277efd2df852ade1077bfe5557ee7b35c523d92b5f41263e593e965271f9964736f6c63430008040033",
  "linkReferences": {},
  "deployedLinkReferences": {}
}